:020000040000FA
:0600000048EF22F012009F
:0610000048EF22F012008F
:06100800C5EF1BF0120011
:061018002AEF1CF012009B
:06102A000100DE4400009D
:08103000000F00000E0000009B
:0810380094969488949A979411
:1010400099989380C00EC76E200EC66EC56A1200B6
:10105000F29EF19C8180F288F28CF28E1200D9CF40
:10106000E6FFE1CFD9FFF2AE04D00001010E636FBD
:1010700002D00001636BF29E94969488949A9794A0
:101080009998938087988594300EE66E41DBE552FF
:10109000E6683EDBE552C20EE66E3ADBE552C20E72
:1010A000E66E36DBE552C20EE66E32DBE552C20E6C
:1010B000E66E2EDBE552858485942A0EE66E28DBEB
:1010C000E552E66825DBE552C20EE66E21DBE5520D
:1010D000C20EE66E1DDBE552C20EE66E19DBE5526E
:1010E000C20EE66E15DBE552858485942B0EE66E06
:1010F0000FDBE552FD0EDBCFE6FF0ADBE552C20E49
:10110000E66E06DBE552C20EE66E02DBE552C20E6B
:10111000E66EFEDAE552C20EE66EFADAE552858434
:1011200085942C0EE66EF4DAE552E66AF1DAE552C1
:1011300085848594210EE66EEBDAE552070EE66EA5
:10114000E7DAE55285848594220EE66EE1DAE5520F
:10115000070EE66EDDDAE55285848594230EE66E91
:10116000D7DAE552030EE66ED3DAE552858485942C
:10117000240EE66ECDDAE5520A0EE66EC9DAE552C5
:1011800085848594260EE66EC3DAE5520F0EE66E70
:10119000BFDAE55285848594270EE66EB9DAE5520A
:1011A000700EE66EB5DAE55285848594310EE66EF2
:1011B000AFDAE552010EE66EABDAE552858485942E
:1011C000320EE66EA5DAE5520A0EE66EA1DAE552B7
:1011D00085848594330EE66E9BDAE5520A0EE66E40
:1011E00097DAE55285848594250EE66E91DAE5520C
:1011F000FE0EDBCFE6FF8CDAE55285848594050E82
:10120000E66E86DAE552E66A90DAE5520001626F30
:101210008584FE0EDB50625D08E06351E8B0F28E1B
:10122000E8A0F29E000E08D007D06351E8B0F28E1D
:10123000E8A0F29E010E00D0E552E7CFD9FF1200E0
:10124000F2AE04D00001010E656F02D00001656BA3
:10125000F29E87988594200EE66E5ADAE5520F0EBC
:10126000E66E56DAE55285848594E66A51DAE552EF
:10127000E66A5BDAE5520001646F8584C80EE66EAB
:1012800056EC22F0E55287880F0EE66E56EC22F0FF
:10129000E552F2920F0E0001645D08E06551E8B07E
:1012A000F28EE8A0F29E000E08D007D06551E8B09B
:1012B000F28EE8A0F29E010E00D01200F2AE04D031
:1012C0000001010E676F02D00001676BF29E8798E4
:1012D0008594200EE66E1CDAE5520C0EE66E18DAE6
:1012E000E55285840F01002B000E01238594E66AE8
:1012F0000FDAE552E66A19DAE5520001666F858475
:10130000F2920C0E665D08E06751E8B0F28EE8A03C
:10131000F29E000E08D007D06751E8B0F28EE8A028
:10132000F29E010E00D01200D9CFE6FFE1CFD9FF27
:10133000020EE126F2AE04D00001010E716F02D060
:101340000001716BF29E87988594270EE66EE0D9B6
:10135000E552700EE66EDCD9E55285848594220E46
:10136000E66ED6D9E552010EE66ED2D9E5528584F5
:101370008594300EE66ECCD9E552FE0EDBCFE6FF4B
:10138000C7D9E552C20EE66EC3D9E552C20EE66E6B
:10139000BFD9E552C20EE66EBBD9E552C20EE66E6B
:1013A000B7D9E552858485942A0EE66EB1D9E55207
:1013B000FE0EDBCFE6FFACD9E552C20EE66EA8D931
:1013C000E552C20EE66EA4D9E552C20EE66EA0D971
:1013D000E552C20EE66E9CD9E552858485940B0ECB
:1013E000E66E96D9E552E66AA0D9E5520001706F23
:1013F000E66A9BD9E552E66A98D9E552E66A95D93C
:10140000E552E66A92D9E55285848594A00EE66E8F
:101410007FD9E5520001602BDF6A080EDF5C19E21C
:10142000DF50E76EFC0EDBCFE9FFFD0EDBCFEAFFFE
:10143000E750E926000EEA22EF50E66EDF50EA6A36
:10144000680FE96E000EEA22E552E750EF6EDF2AE0
:10145000E4D760C0E6FF5CD9E55270C0E6FF58D91A
:10146000E552DF6A080EDF5C0CE2DF50EA6A680FC3
:10147000E96E000EEA22EF50E66E4AD9E552DF2A05
:10148000F1D785848594200EE66E42D9E5520E0E82
:10149000E66E3ED9E55285848788010EE66E56ECED
:1014A00022F0E5520000000085940001726B736B1E
:1014B00081A00DD00001722B000E7323F40E0001E9
:1014C000721902E1010E731901E101D0F1D785947F
:1014D000270EE66E2AD9E552E76E010EE7CFDBFF55
:1014E000700EE66E15D9E55285848594220EE66E5F
:1014F0000FD9E552070EE66E0BD9E5528584859427
:10150000E10EE66E05D9E55285848594200EE66EDF
:10151000FFD8E5520F0EE66EFBD8E552858487882A
:101520000F0EE66E56EC22F0E552F292F40E000138
:10153000721902E1010E731904E000017251731176
:1015400008E100017151E8B0F28EE8A0F29E020EAF
:1015500019D0010EDB50100B0DE1010EDB50200BFA
:1015600009E000017151E8B0F28EE8A0F29E000E91
:1015700009D008D000017151E8B0F28EE8A0F29EC7
:10158000010E00D0146E020EE15C02E2E16AE55247
:10159000E16E1450E552E7CFD9FF1200D9CFE6FF34
:1015A000E1CFD9FF030EE126F2A805D00001010E1C
:1015B000746FF29E02D00001746BF2AE03D0010E84
:1015C000756F01D0756B8594170EE66EA1D8E55244
:1015D000E66AABD8E552E76E010EE7CFDBFF858404
:1015E0008150010B0DE0010EDB50010B09E0000101
:1015F000740501E1F288750501E1F28E020E7CD0DE
:101600008594070EE66E91D8E552E76E020EE7CF9D
:10161000DBFF85848150010B0DE1020EDB50000BD6
:1016200009E00001740501E1F288750501E1F28E1F
:10163000020E62D0F2928594610EE66E69D8E55290
:10164000E66A73D8E5520001616FE66A6ED8E5522A
:10165000E66EFD0EDBCFE9FFFE0EDBCFEAFFE552C3
:10166000E750EF6EDF6A080EDF5C15E2E66A5DD8D0
:10167000E552E66EDF50E76EFB0EDBCFE9FFFC0EB6
:10168000DBCFEAFFE750E926000EEA22E552E750F9
:10169000EF6EDF2AE8D785848594270EE66E45D85D
:1016A000E552E76E020EE7CFDBFF700EE66E30D834
:1016B000E55285848594170EE66E2AD8E552E66ACF
:1016C00034D8E552E76E010EE7CFDBFF8584DB50AF
:1016D000000B09E00001740501E1F288750501E1E4
:1016E000F28E010E09D00001740501E1F288750542
:1016F00001E1F28E000E00D0146E030EE15C02E2F6
:10170000E16AE552E16E1450E552E7CFD9FF1200CD
:10171000D9CFE6FFE1CFD9FFFE0EDB50C96EC7A0DF
:10172000FED7E552E7CFD9FF1200D9CFE6FFE1CFD0
:10173000D9FFFE0EDB50C96EC7A0FED7C95000D03E
:10174000E552E7CFD9FF120096829680849284906A
:10175000968E1200D9CFE6FFE1CFD9FFFE0EDB5007
:10176000640802E2020E38D00001766BFE0EDB50F8
:10177000020DFE0EF3CFDBFFFD0EDB5008E0FE0E88
:10178000DB500109E76EFE0EE7CFDBFF07D0FE0E50
:10179000DB50FE0BE76EFE0EE7CFDBFF7651040D4C
:1017A000F3CF76F0FC0EDB5007E0020E7611766F79
:1017B000FE0E7615766F03D0FC0E7615766FFB0E57
:1017C000DBCFE6FFFE0EDBCFE6FF76C0E6FF7DDB7C
:1017D000E552E552E55200D0E552E7CFD9FF1200BD
:1017E000D9CFE6FFE1CFD9FFFE0EDB50640802E25D
:1017F000020E4AD00001010E776FFE0EDB50020D83
:10180000FE0EF3CFDBFFFD0EDB5008E0FE0EDB50DB
:101810000109E76EFE0EE7CFDBFF07D0FE0EDB50BF
:10182000FE0BE76EFE0EE7CFDBFF7751040DF3CF23
:1018300077F0FB0EDB500EE0FC0EDB5004E0030EF5
:101840007711776F06D0020E7711776FFE0E77153E
:10185000776F0DD0FC0EDB5007E0FD0E7715776F2C
:10186000010E7711776F03D0FC0E7715776FFA0EA4
:10187000DBCFE6FFFE0EDBCFE6FF77C0E6FF25DB22
:10188000E552E552E55200D0E552E7CFD9FF12000C
:10189000D9CFE6FFE1CFD9FFFE0EDB50640802E2AC
:1018A000020E5FD0FC0EDB0405E0FC0EDB5002E014
:1018B000020E57D0FA0EDB5006E1F90EDB50640839
:1018C00002E2020E4ED00001020E786FFE0EDB50D7
:1018D000020DFE0EF3CFDBFFFD0EDB5008E0FE0E27
:1018E000DB500109E76EFE0EE7CFDBFF07D0FE0EEF
:1018F000DB50FE0BE76EFE0EE7CFDBFF7851040DE9
:10190000F3CF78F0FA0EDB500EE0FB0EDB5004E074
:10191000030E7811786F06D0020E7811786FFE0EE4
:101920007815786F0DD0FB0EDB5007E0FD0E7815B3
:10193000786F010E7811786F03D0FC0E7815786FF0
:10194000F90EDBCFE6FFFC0EDBCFE6FFFE0EDBCFB2
:10195000E6FF78C0E6FF10DBE552E552E552E552BE
:1019600000D0E552E7CFD9FF1200D9CFE6FFE1CF93
:10197000D9FFFE0EDB50640802E2020E69D0FC0EB5
:10198000DBCFE6FFFE0EDB50E552E724640810E3F0
:10199000FE0EDBCFE6FFFC0EDB50E552E75C146E7B
:1019A000156A153404E214509C08000E155402E226
:1019B000020E4ED00001030E796FFE0EDB50020DB9
:1019C000FE0EF3CFDBFFFD0EDB5008E0FE0EDB501A
:1019D0000109E76EFE0EE7CFDBFF07D0FE0EDB50FE
:1019E000FE0BE76EFE0EE7CFDBFF7951040DF3CF60
:1019F00079F0FA0EDB500EE0FB0EDB5004E0030E34
:101A00007911796F06D0020E7911796FFE0E791572
:101A1000796F0DD0FB0EDB5007E0FD0E7915796F65
:101A2000010E7911796F03D0FC0E7915796FF90EDB
:101A3000DBCFE6FFFC0EDBCFE6FFFE0EDBCFE6FFE3
:101A400079C0E6FF99DAE552E552E552E55200D059
:101A5000E552E7CFD9FF12000001040E7A6F7A51E8
:101A6000040DF3CF7AF0FC0E7A157A6F7AC0E6FF98
:101A7000F5D9E55200D01200D9CFE6FFE1CFD9FF6A
:101A8000FE0EDB50F009E76EFE0EE7CFDBFFFE0E29
:101A9000DBCFE6FFE3D9E55200D0E552E7CFD9FF2F
:101AA0001200D9CFE6FFE1CFD9FFFE0EDB5080094F
:101AB000E76EFE0EE7CFDBFFFE0EDBCFE6FFCED9F3
:101AC000E552000909E07E0E146E000E156E14C07A
:101AD000F3FF15C0F4FF2ED000010A0E7D6F7D517B
:101AE00000081FE22BD8110EE66E5ED9E5522DD804
:101AF00000017B6F7B5106E036D800017D07010EA7
:101B00007C6F0ED033D800017E6F9DD92FD8000195
:101B10007F6F9FD928D800017D6B7C6B01D0E2D705
:101B2000DED77E0E146E000E156E14C0F3FF15C0C6
:101B3000F4FF00D0E552E7CFD9FF120096829680DD
:101B4000849296928490969012009682968084A2B7
:101B500005D096929690010E05D004D0969296905C
:101B6000000E00D01200968096821200D9CFE6FFB8
:101B7000E1CFD9FF030EE126020EDB6A9682DE6A10
:101B8000DD6ADECF14F0DDCF15F0153404E2145019
:101B90000708000E155401E2F6D0968084A0FED707
:101BA000D9CFE9FFDACFEAFFEE50ED1015E184A2BC
:101BB0000AD0020EDB508009E76E020EE7CFDBFF92
:101BC0008490969009D0020EDB507F0BE76E020ED8
:101BD000E7CFDBFF84909690D9CFE9FFDACFEAFF19
:101BE000010EEE1801E1ED5015E184A20AD0020EBB
:101BF000DB504009E76E020EE7CFDBFF8490969042
:101C000009D0020EDB50BF0BE76E020EE7CFDBFF01
:101C100084909690D9CFE9FFDACFEAFF020EEE1852
:101C200001E1ED5015E184A20AD0020EDB5020093B
:101C3000E76E020EE7CFDBFF8490969009D0020E8C
:101C4000DB50DF0BE76E020EE7CFDBFF8490969050
:101C5000D9CFE9FFDACFEAFF030EEE1801E1ED502C
:101C600015E184A20AD0020EDB501009E76E020EC5
:101C7000E7CFDBFF8490969009D0020EDB50EF0B8C
:101C8000E76E020EE7CFDBFF84909690D9CFE9FF95
:101C9000DACFEAFF040EEE1801E1ED5015E184A25F
:101CA0000AD0020EDB500809E76E020EE7CFDBFF19
:101CB0008490969009D0020EDB50F70BE76E020E6F
:101CC000E7CFDBFF84909690D9CFE9FFDACFEAFF28
:101CD000050EEE1801E1ED5015E184A20AD0020EC6
:101CE000DB500409E76E020EE7CFDBFF849096908D
:101CF00009D0020EDB50FB0BE76E020EE7CFDBFFD5
:101D000084909690D9CFE9FFDACFEAFF060EEE185D
:101D100001E1ED5015E184A20AD0020EDB50020968
:101D2000E76E020EE7CFDBFF8490969009D0020E9B
:101D3000DB50FD0BE76E020EE7CFDBFF8490969041
:101D4000D9CFE9FFDACFEAFF070EEE1801E1ED5037
:101D500015E184A20AD0020EDB500109E76E020EE3
:101D6000E7CFDBFF8490969009D0020EDB50FE0B8C
:101D7000E76E020EE7CFDBFF84909690DF2A010E1C
:101D800001E3DB2AFED684929692020EDB50146E9B
:101D9000030EE15C03E200D0E16AE552E16E14500B
:101DA000E552E7CFD9FF1200D9CFE6FFE1CFD9FF47
:101DB000020EE126DE6ADD6ADECF14F0DDCF15F01B
:101DC000153404E214500708000E155432E3FE0ED9
:101DD000DB50DF5206E0DFCFF3FFE846FE0BF306F1
:101DE000FCE17F09FF0810E1968296800000000068
:101DF00000000000000000009690000000000000BD
:101E000000000000000010D084929692968000009E
:101E1000000000000000000000009690000000009C
:101E20000000000000000000DF2A010E01E3DB2AB1
:101E3000C3D7020EE15C02E2E16AE552E16EE552CF
:101E4000E7CFD9FF12008492969296809690968260
:101E5000120096829680969096821200D9CFE6FF65
:101E6000E1CFD9FF00010A0E826F8251000827E2FC
:101E700065DE100EE66E98DFE55267DE0001806FCA
:101E8000805106E070DE00018207010E816F16D0DE
:101E9000FE0EDBCFE6FF88DFE55257DE0001806FE4
:101EA000805106E060DE00018207010E816F06D0DE
:101EB0005ADE0001826B816B01D0DAD7D6D781510F
:101EC00000D0E552E7CFD9FF1200D9CFE6FFE1CF2E
:101ED000D9FF00010A0E856F8551000847E22EDE0A
:101EE000100EE66E61DFE55230DE0001836F835134
:101EF00006E039DE00018507010E846F36D0FE0E44
:101F0000DBCFE6FF51DFE55220DE0001836F835116
:101F100006E029DE00018507010E846F26D0FD0E44
:101F2000DBCFE6FF41DFE55210DE0001836F835116
:101F300006E019DE00018507010E846F16D0FC0E45
:101F4000DBCFE6FF31DFE55200DE0001836F835116
:101F500006E009DE00018507010E846F06D003DE6E
:101F60000001856B846B01D0BAD7B6D7845100D0FD
:101F7000E552E7CFD9FF1200D9CFE6FFE1CFD9FF75
:101F800000010A0E886F8851000857E2D7DD100E55
:101F9000E66E0ADFE552D9DD0001866F865106E064
:101FA000E2DD00018807010E876F46D0FE0EDBCF11
:101FB000E6FFFADEE552C9DD0001866F865106E0D4
:101FC000D2DD00018807010E876F36D0FD0EDBCF12
:101FD000E6FFEADEE552B9DD0001866F865106E0D4
:101FE000C2DD00018807010E876F26D0FC0EDBCF13
:101FF000E6FFDADEE552A9DD0001866F865106E0D4
:10200000B2DD00018807010E876F16D0FB0EDBCF13
:10201000E6FFCADEE55299DD0001866F865106E0D3
:10202000A2DD00018807010E876F06D09CDD00014C
:10203000886B876B01D0AAD7A6D7875100D0E5520D
:10204000E7CFD9FF1200D9CFE6FFE1CFD9FF020ECB
:10205000E126DF6A010EDB6A776A0F014B6BD26AF9
:10206000D16AC098C26A230EC16EC088C168C268B6
:10207000C0989B9C92809284928A92869282969A31
:10208000949E939A939C93969592978C978A9A9EF6
:102090009A9C998A998C998E958C958A6D6A280E4E
:1020A0006C6E6B6A6E6A10EC19F00F010251010A36
:1020B00061E0010A01E094D2958A9598959C959EDD
:1020C000C00E6D6E6B6A200E6C6E160EDF6EDE52E9
:1020D000430EDD6E010EDBCFE6FFDFCFE6FFBBEC8C
:1020E00018F0E552E5521B0EDF6EDE52700EDD6E0B
:1020F000010EDBCFE6FFDFCFE6FFBBEC18F0E552C9
:10210000E5521C0EDF6EDE527F0EDD6E010EDBCF60
:10211000E6FFDFCFE6FFBBEC18F0E552E5521D0EFF
:10212000DF6EDE52040EDD6E010EDBCFE6FFDFCF89
:10213000E6FFBBEC18F0E552E5521E0EDF6EDE52F4
:102140007F0EDD6E010EDBCFE6FFDFCFE6FFBBECDF
:1021500018F0E552E552180EDF6EDE52040EDD6E09
:10216000010EDBCFE6FFDFCFE6FFBBEC18F0E55258
:10217000E55236D21F0E6B1403E1040E6D1401E01C
:10218000F9D76B801F0E6B1403E1040E6D1401E090
:10219000F9D7DE527F0EDD6E210EDF6E010EDBCF32
:1021A000E6FFDFCFE6FFBBEC18F0E552E5521F0E6D
:1021B0006B1403E1040E6D1401E0F9D76B841F0E5C
:1021C0006B1403E1040E6D1401E0F9D71F0E6B14BC
:1021D00003E1040E6D1401E0F9D76B801F0E6B1440
:1021E00003E1040E6D1401E0F9D7DE52200EDD6E1E
:1021F000230EDF6E010EDBCFE6FFDFCFE6FFBBEC89
:1022000018F0E552E5521F0E6B1403E1040E6D1435
:1022100001E0F9D76B841F0E6B1403E1040E6D14FB
:1022200001E0F9D71F0E6B1403E1040E6D1401E0F9
:10223000F9D76B801F0E6B1403E1040E6D1401E0DF
:10224000F9D7DE52200EDD6E240EDF6E010EDBCFDD
:10225000E6FFDFCFE6FFBBEC18F0E552E5521F0EBC
:102260006B1403E1040E6D1401E0F9D76B841F0EAB
:102270006B1403E1040E6D1401E0F9D71F0E6B140B
:1022800003E1040E6D1401E0F9D76B801F0E6B148F
:1022900003E1040E6D1401E0F9D7DE52200EDD6E6D
:1022A000250EDF6E010EDBCFE6FFDFCFE6FFBBECD6
:1022B00018F0E552E5521F0E6B1403E1040E6D1485
:1022C00001E0F9D76B841F0E6B1403E1040E6D144B
:1022D00001E0F9D71F0E6B1403E1040E6D1401E049
:1022E000F9D76B801F0E6B1403E1040E6D1401E02F
:1022F000F9D7DE52040EDD6E260EDF6E010EDBCF47
:10230000E6FFDFCFE6FFBBEC18F0E552E5521F0E0B
:102310006B1403E1040E6D1401E0F9D76B841F0EFA
:102320006B1403E1040E6D1401E0F9D71F0E6B145A
:1023300003E1040E6D1401E0F9D76B801F0E6B14DE
:1023400003E1040E6D1401E0F9D7DE527F0EDD6E5D
:10235000270EDF6E010EDBCFE6FFDFCFE6FFBBEC23
:1023600018F0E552E5521F0E6B1403E1040E6D14D4
:1023700001E0F9D76B841F0E6B1403E1040E6D149A
:1023800001E0F9D71F0E6B1403E1040E6D1401E098
:10239000F9D76B801F0E6B1403E1040E6D1401E07E
:1023A000F9D7DE527F0EDD6E280EDF6E010EDBCF19
:1023B000E6FFDFCFE6FFBBEC18F0E552E5521F0E5B
:1023C0006B1403E1040E6D1401E0F9D76B841F0E4A
:1023D0006B1403E1040E6D1401E0F9D71F0E6B14AA
:1023E00003E1040E6D1401E0F9D76B801F0E6B142E
:1023F00003E1040E6D1401E0F9D7DE52020EDD6E2A
:10240000210EDF6E010EDBCFE6FFDFCFE6FFBBEC78
:1024100018F0E552E5521F0E6B1403E1040E6D1423
:1024200001E0F9D76B841F0E6B1403E1040E6D14E9
:1024300001E0F9D71F0E6B1403E1040E6D1401E0E7
:10244000F9D76B801F0E6B1403E1040E6D1401E0CD
:10245000F9D7010EDB6A0E0EDF6E010EDBCFE6FF51
:10246000DFCFE6FFBBEC18F0E552E5521F0E6B1410
:1024700003E1040E6D1401E0F9D76B841F0E6B1499
:1024800003E1040E6D1401E0F9D71F0E6B1403E194
:10249000040E6D1401E0F9D76B801F0E6B1403E17D
:1024A000040E6D1401E0F9D7DE52090EDD6E2D0E1B
:1024B000DF6E010EDBCFE6FFDFCFE6FFBBEC18F0EF
:1024C000E552E5521F0E6B1403E1040E6D1401E09A
:1024D000F9D76B841F0E6B1403E1040E6D1401E039
:1024E000F9D76B801F0E6B1403E1040E6D1401E02D
:1024F000F9D7DE52010EDD6E2E0EDF6E010EDBCF40
:10250000E6FFDFCFE6FFBBEC18F0E552E5521F0E09
:102510006B1403E1040E6D1401E0F9D76B841F0EF8
:102520006B1403E1040E6D1401E0F9D71F0E6B1458
:1025300003E1040E6D1401E0F9D76B801F0E6B14DC
:1025400003E1040E6D1401E0F9D7DE52020EDD6ED8
:102550002C0EDF6E010EDBCFE6FFDFCFE6FFBBEC1C
:1025600018F0E552E5521F0E6B1403E1040E6D14D2
:1025700001E0F9D76B841F0E6B1403E1040E6D1498
:1025800001E0F9D76B801F0E6B1403E1040E6D148C
:1025900001E0F9D7DE52010EDD6E2A0EDF6E010E6C
:1025A000DBCFE6FFDFCFE6FFBBEC18F0E552E552EC
:1025B0001F0E6B1403E1040E6D1401E0F9D76B8458
:1025C0001F0E6B1403E1040E6D1401E0F9D76B804C
:1025D0001F0E6B1403E1040E6D1401E0F9D700D057
:1025E000938293840F014B6B838E818C818A849AB2
:1025F000828E020EE15C02E2E16AE552E16EE55292
:10260000E7CFD9FF1200D9CFE6FFE1CFD9FF040E03
:10261000E126DF6A2D0EF36E030EF3CFDBFFFE0E15
:10262000E66EE668040EE66E410EE66E72EC21F090
:10263000E552E552E552E5526BEC22F061EC22F0F6
:10264000000901E0FBD70F01020551E1C450E66E1D
:10265000D950010FE96EDACFEAFFE552E750EE6E8E
:10266000ED6A010EDBCF14F0020EDBCF15F0030E86
:10267000DB50166E176A1450165C155017580CE292
:10268000030EDB50E66ED950010FE96EDACFEAFF98
:10269000E552E750EE6EED6A640E086E096A010EAF
:1026A000DBCF0DF0020EDBCF0EF0DDEC21F0DE52C1
:1026B00006C0DEFF07C0DDFFDD52030EDB50146EE7
:1026C000156A010EDBCF08F0020EDBCF09F014C053
:1026D0000DF015C00EF012EC22F0DE5208C0DEFF45
:1026E00009C0DDFFDD52010EDB50DF6E04D0C450A7
:1026F000FE0BE842DF6E67EC22F00000DF5000D0F6
:10270000146E040EE15C02E2E16AE552E16E1450DF
:10271000E552E7CFD9FF1200D9CFE6FFE1CFD9FFCD
:10272000E652DF6AE66A800EE66E740EE66E410ED1
:10273000E66E72EC21F0E552E552E552E5526BECA3
:1027400022F061EC22F0000901E0FBD7C450DF6EFB
:10275000DF50146E156AD890155004E6A20E145C72
:10276000000E15581FE2DF50146E156A153404E28E
:1027700014508408000E155413E2DF50146E156ACD
:10278000840E145E000E155A030E1502F3CF15F0D9
:102790001402F3CF14F0F45015261450DF6E01D05C
:1027A000DF6A02D0640EDF6E67EC22F0DF5000D0EB
:1027B000E552E552E7CFD9FF1200D9CFE6FFE1CFCE
:1027C000D9FF020EE126DE6ADD6AE66AC00EE66E19
:1027D0006C0EE66E410EE66E72EC21F0E552E552AB
:1027E000E552E5526BEC22F061EC22F0000901E0C9
:1027F000FBD7C450DE6EDD6ADECF14F0DDCF15F0FE
:10280000450E145E000E155A14C0DEFF15C0DDFF24
:10281000DECF14F0DDCF15F0153404E214500008BB
:10282000000E15541FE2DECF14F0DDCF15F00A0EB6
:102830001502F3CF15F01402F3CF14F0F45015265F
:10284000170E0D6E0E6A14C008F015C009F0B7EC33
:1028500021F008C014F009C015F014C0DEFF15C047
:10286000DDFF02D0DE6ADD6A67EC22F0DF50146E15
:10287000020EE15C03E200D0E16AE552E16E145021
:10288000E552E7CFD9FF1200D9CFE6FFE1CFD9FF5C
:10289000E652DF6AE66A800EE66E7C0EE66E410E58
:1028A000E66E72EC21F0E552E552E552E5526BEC32
:1028B00022F061EC22F0000901E0FBD7C450DF6E8A
:1028C00067EC22F0DF5000D0E552E552E7CFD9FFA8
:1028D0001200C088C168C268C0988750800B01E0B0
:1028E000010E00D01200D9CFE6FFE1CFD9FFFC0ED8
:1028F000DB50020805E1FD0EDB5002E1000E34D092
:10290000FE0EDB50CB6EFE0EDB50FE0BE76EFE0EB6
:10291000E7CFDBFFDB407F0BB76E8196CA84CA80AE
:10292000CA82FC0EDB0404E0FC0EDB50020802E16C
:102930003F0EB66EFD0EDB5000080CE2FC0EDB50C5
:10294000020808E10A0EE66EFBEC21F0E552FD0EEE
:10295000DB06F0D7FC0EDB50020803E0FC0EDB5078
:1029600001E1B66A010E00D0E552E7CFD9FF1200AF
:10297000D9CFE6FFE1CFD9FFE652DF6AFE0EDB508A
:10298000030A01E1AED0010A01E174D0020A3BE082
:10299000010A02E0000EDED080A607D0320EE66EFD
:1029A00056EC22F0E552DF6AD3D0F00EE66EE66810
:1029B0001C0EE66E410EE66E72EC21F0E552E55219
:1029C000E552E552888C0C0EE66E56EC22F0E5528C
:1029D0006BEC22F061EC22F0000901E0FBD7C4505F
:1029E000DF6E889C320EE66E56EC22F0E55267EC04
:1029F00022F080A607D0320EE66E56EC22F0E552A9
:102A0000DF6AA6D0A5D080A207D0320EE66E56ECC3
:102A100022F0E552DF6A9CD0FC0EE66EE6680C0EF2
:102A2000E66E410EE66E72EC21F0E552E552E5529B
:102A3000E552888C0C0EE66E56EC22F0E5526BECFB
:102A400022F061EC22F0000901E0FBD7C450DF6EF8
:102A5000889C320EE66E56EC22F0E55267EC22F0CE
:102A600080A207D0320EE66E56EC22F0E552DF6A05
:102A70006FD06ED085AC07D0320EE66E56EC22F0E9
:102A8000E552DF6A65D0E66AF00EE66E5C0EE66E31
:102A9000410EE66E72EC21F0E552E552E552E55248
:102AA000888C0C0EE66E56EC22F0E5526BEC22F0B0
:102AB00061EC22F0000901E0FBD7C450DF6E889C76
:102AC000320EE66E56EC22F0E55267EC22F085AC51
:102AD00007D0320EE66E56EC22F0E552DF6A38D0AF
:102AE00037D085AA07D0320EE66E56EC22F0E552BA
:102AF000DF6A2ED0E66AF80EE66E540EE66E410EE0
:102B0000E66E72EC21F0E552E552E552E552888C12
:102B10000C0EE66E56EC22F0E5526BEC22F061EC06
:102B200022F0000901E0FBD7C450DF6E889C320E12
:102B3000E66E56EC22F0E55267EC22F085AA07D04B
:102B4000320EE66E56EC22F0E552DF6A01D000D07C
:102B5000DF5000D0E552E552E7CFD9FF1200D9CFC0
:102B6000E6FFE1CFD9FFE652DF6AC088C168C268DC
:102B7000C098FE0EDB50030A01E174D0010A4EE05A
:102B8000020A28E0010A02E0000E92D080A607D0D7
:102B9000320EE66E56EC22F0E552DF6A87D0888C62
:102BA0000C0EE66E56EC22F0E5528050080B01E068
:102BB000010EDF6E889C320EE66E56EC22F0E55276
:102BC00080A607D0320EE66E56EC22F0E552DF6AA0
:102BD0006DD06CD080A207D0320EE66E56EC22F09B
:102BE000E552DF6A63D0888C0C0EE66E56EC22F05C
:102BF000E5528050020B01E0010EDF6E889C320E20
:102C0000E66E56EC22F0E55280A207D0320EE66E58
:102C100056EC22F0E552DF6A49D048D085AC07D0A7
:102C2000320EE66E56EC22F0E552DF6A3FD0888C19
:102C30000C0EE66E56EC22F0E5528550400B01E09A
:102C4000010EDF6E889C320EE66E56EC22F0E552E5
:102C500085AC07D0320EE66E56EC22F0E552DF6A04
:102C600025D024D085AA07D0320EE66E56EC22F08D
:102C7000E552DF6A1BD0888C0C0EE66E56EC22F013
:102C8000E5528550200B01E0010EDF6E889C320E6C
:102C9000E66E56EC22F0E55285AA07D0320EE66EBB
:102CA00056EC22F0E552DF6A01D000D0DF5000D0B0
:102CB000E552E552E7CFD9FF1200D9CFE6FFE1CFC9
:102CC000D9FF060EE126DF6A010EDB6A020EDB6A1F
:102CD000030EDB68040EDB68050EDB6A0F01025190
:102CE000010A01E18AD0010A01E0DDD0DE52160EB0
:102CF000DD6E050EF36E020EF3CFDBFFDBCFE6FFDA
:102D0000010EDBCFE6FF37DAE552E552030EDB506A
:102D1000000829E2040EDB06040EDB50000807E27F
:102D200081A202D004D002D0040EDB06F5D781B216
:102D30001AD0030EDB06DB5013E1DE52160EDD6EF9
:102D4000430EF36E020EF3CFDBFFDBCFE6FF010E87
:102D5000DBCFE6FF10DAE552E552000EA6D002D036
:102D6000040EDB68D3D7FE0EDB50020A25E0030A0F
:102D700013E0010A01E030D0DE52060EDD6E010ED6
:102D8000DBCFE6FF7CDAE552E76E050EE7CFDBFF2F
:102D9000DB50800ADF6E20D0DE52070EDD6E010EA2
:102DA000DBCFE6FF6CDAE552E76E050EE7CFDBFF1F
:102DB000DB50800ADF6E10D0DE52080EDD6E010E91
:102DC000DBCFE6FF5CDAE552E76E050EE7CFDBFF0F
:102DD000DB50800ADF6E00D0DE52160EDD6E430E31
:102DE000F36E020EF3CFDBFFDBCFE6FF010EDBCF8E
:102DF000E6FFC1D9E552E55256D0030EDB5000087C
:102E000019E2040EDB06040EDB50000807E281A283
:102E100002D004D002D0040EDB06F5D781B20AD06E
:102E2000030EDB06DB5003E1000E3FD002D0040EA0
:102E3000DB68E3D7FE0EDB50020A24E0030A12E04F
:102E4000010A01E02FD0DE52010EDD6EDBCFE6FF7E
:102E500016DAE552E76E050EE7CFDBFFDB50800A9E
:102E6000DF6E20D0DE52030EDD6E010EDBCFE6FFFB
:102E700006DAE552E76E050EE7CFDBFFDB50800A8E
:102E8000DF6E10D0DE52050EDD6E010EDBCFE6FFE9
:102E9000F6D9E552E76E050EE7CFDBFFDB50800A7F
:102EA000DF6E00D000D0DF5000D0146E060EE15C63
:102EB00002E2E16AE552E16E1450E552E7CFD9FF34
:102EC0001200D9CFE6FFE1CFD9FF040EE126DF6A79
:102ED000010EDB6A020EDB6A030EDB6A0F01025190
:102EE000010A54E0010A01E088D00A0EDF6EDFCF4C
:102EF000E6FFC5D9E552E76E030EE7CFDBFFDB50F7
:102F0000030BE76E010EE7CFDBFFDB50030804E0A5
:102F1000010EDB50020807E1010EDB50020BE76EE9
:102F2000010EE7CFDBFF170EDF6E030EF36E020E0E
:102F3000F3CFDBFFDBCFE6FFDFCFE6FF1CD9E552A7
:102F4000E552170EDF6E020EDB6ADBCFE6FFDFCF46
:102F5000E6FF11D9E552E552050EE66EFBEC21F0D5
:102F6000E552050EE66EFBEC21F0E552050EE66E2D
:102F7000FBEC21F0E552050EE66EFBEC21F0E5528C
:102F8000050EE66EFBEC21F0E55237D01F0E6B14F8
:102F900003E1040E6D1401E0F9D76B801F0E6B1472
:102FA00003E1040E6D1401E0F9D7220EDF6EDFCFCE
:102FB000E6FF65D9E552E76E030EE7CFDBFFDB5096
:102FC000080BE76E010EE7CFDBFFDB5004E1DE52BA
:102FD000010EDD6E02D0010EDB6A1F0E6B1403E1E1
:102FE000040E6D1401E0F9D76B841F0E6B1403E11E
:102FF000040E6D1401E0F9D700D0010EDB50146E01
:10300000040EE15C03E200D0E16AE552E16E145087
:10301000E552E7CFD9FF1200D9CFE6FFE1CFD9FFC4
:10302000E652DF6AFE0EDB5011E0010A01E01CD01F
:10303000F80EE66EE668140EE66E410EE66E72EC71
:1030400021F0E552E552E552E5520ED0E00EE66E73
:10305000E668240EE66E410EE66E72EC21F0E55253
:10306000E552E552E55200D083825A0EE66E56ECE8
:1030700022F0E5526BEC22F061EC22F0000901E055
:10308000FBD7C450DF6E839267EC22F0DF5000D094
:10309000E552E552E7CFD9FF1200D9CFE6FFE1CFE5
:1030A000D9FFE652DF6AC088C168C268C0988382CF
:1030B0005A0EE66E56EC22F0E552FE0EDB5009E0A9
:1030C000010A01E00CD08050040B01E0010EDF6E1C
:1030D00006D08050200B01E0010EDF6E00D08392FD
:1030E000DF5000D0E552E552E7CFD9FF1200829EB3
:1030F0001200828E1200829E050EE66EFBEC21F01D
:10310000E552828E050EE66EFBEC21F0E5521200D0
:10311000848A1200849A1200849A050EE66EFBECF3
:1031200021F0E552848A050EE66EFBEC21F0E552B3
:103130001200819A1200818A1200819A050EE66EB1
:10314000FBEC21F0E552818A050EE66EFBEC21F0E6
:10315000E5521200819C1200818C1200819C050EA8
:10316000E66EFBEC21F0E552818C050EE66EFBEC81
:1031700021F0E5521200D9CFE6FFE1CFD9FF0F01D0
:103180000251010A23E0010A01E046D0959E839E88
:103190005A0EE66E56EC22F0E552FE0EDB50E824A5
:1031A0000001896F800E8911896FFD0EDBCF8AF0D7
:1031B00089C06FFF6DA0FED76FCF8CF08AC06FFF04
:1031C0006DA0FED76FCF8BF0838E26D01F0E6B14B1
:1031D00003E1040E6D1401E0F9D7380E6F6E1F0E77
:1031E0006B1403E1040E6D1401E0F9D7FE0EDB5001
:1031F0006F6E1F0E6B1403E1040E6D1401E0F9D71E
:10320000FD0EDB506F6E6B8C1F0E6B1403E1040E12
:103210006D1401E0F9D700D0E552E7CFD9FF1200D5
:10322000D9CFE6FFE1CFD9FFE6521F0E6B1403E1C1
:10323000040E6D1401E0F9D76B801F0E6B1403E1CF
:10324000040E6D1401E0F9D70D0EE66E18D8E552A4
:10325000DF6E6B841F0E6B1403E1040E6D1401E02E
:10326000F9D72A0EDF5C04E10F01010E026F02D0D4
:103270000F01026BE552E552E7CFD9FF1200D9CF1B
:10328000E6FFE1CFD9FF0F010251010A21E0010A57
:1032900001E06FD0959E839E5A0EE66E56EC22F0AA
:1032A000E552FE0EDB50E82400018D6F7F0E8D1578
:1032B0008D6F8E6B8DC06FFF6DA0FED76FCF90F0BE
:1032C0008EC06FFF6DA0FED76FCF8FF0838E51D071
:1032D0001F0E6B1403E1040E6D1401E0F9D76B802F
:1032E0001F0E6B1403E1040E6D1401E0F9D7380EC4
:1032F0006F6E6DB0FED71F0E6B1403E1040E6D14DC
:1033000001E0F9D7FE0EDB506F6E6DB0FED71F0ED9
:103310006B1403E1040E6D1401E0F9D76B821F0EEC
:103320006B1403E1040E6D1401E0F9D7390E6F6ED2
:103330001F0E6B1403E1040E6D1401E0F9D76B86C8
:103340001F0E6B1403E1040E6D1401E0F9D76FCF6B
:103350008FF01F0E6B1403E1040E6D1401E0F9D71A
:103360006B841F0E6B1403E1040E6D1401E0F9D79A
:1033700000D000018F5100D0E552E7CFD9FF1200F5
:103380001CEC08F05EEC09F0020EE66E0CCFE6FFD6
:103390002FEC08F0E552E55228EC08F020EC09F09B
:1033A00023EC10F0A4EF0BF09AC003FF9FC004FFC2
:1033B0009BC005FF9CC006FF9DC007FF9EC008FF85
:1033C000A0C00BFF000199390F0B0E081AE1916B99
:1033D0000F01065105E0010E096F06CF0AFF09D063
:1033E000075104E0096B07CF0AFF03D0010E096FF4
:1033F0000A6B04510325640804E2640ED880035567
:10340000046FE10E0001995D0FE10ACFE6FF09CFDD
:10341000E6FF010EE66E03CFE6FFAAEC0BF0E552E5
:10342000E552E552E552B0D1E20E995D0EE10ACFC8
:10343000E6FF09CFE6FFE66A03CFE6FFAAEC0BF052
:10344000E552E552E552E5529FD1E30E995D12E156
:103450000ACFE6FF09CFE6FFE66A04CFE6FF010EDA
:10346000E66E03CFE6FFB5EC0CF0146E060EE15EDF
:1034700014508AD1E40E995D12E10ACFE6FF09CF1C
:10348000E6FF010EE66E04CFE6FFE66E03CFE6FF31
:10349000B5EC0CF0146E060EE15E145075D1E50E1D
:1034A000995D11E10ACFE6FF09CFE6FFE66A04CF96
:1034B000E6FFE66A03CFE6FFB5EC0CF0146E060EED
:1034C000E15E145061D1E60E995D12E10ACFE6FF8C
:1034D00009CFE6FF010EE66E04CFE6FFE66A03CFF2
:1034E000E6FFB5EC0CF0146E060EE15E14504CD104
:1034F000E70E995D03E12CEC0DF046D1E90E995DE4
:1035000011E105CFE6FFE66A010EE66E08CFE6FFA1
:10351000E66E03CFE6FF48EC0CF0146E060EE15E9B
:10352000145032D1E80E995D11E105CFE6FFE66A4D
:10353000E66A08CFE6FF010EE66E03CFE6FF48EC31
:103540000CF0146E060EE15E14501ED1EA0E995D69
:103550000DE1E66A010EE66EE66E320EE66EAAEC4C
:103560000BF0E552E552E552E5520ED1EB0E995DB6
:103570000DE1E66A010EE66EE66A320EE66EAAEC30
:103580000BF0E552E552E552E552FED0EC0E995DA6
:1035900011E1190EE66EE66AE66A08CFE6FF010E53
:1035A000E66E320EE66E48EC0CF0146E060EE15E2E
:1035B0001450EAD0ED0E995D11E1190EE66EE66A3F
:1035C000010EE66E08CFE6FFE66E320EE66E48ECC0
:1035D0000CF0146E060EE15E1450D6D0EE0E995D1E
:1035E00011E1320EE66EE66A010EE66E08CFE6FFE6
:1035F000E66E320EE66E48EC0CF0146E060EE15EDE
:103600001450C2D0EF0E995D06E1020EE66E3CEC5E
:103610000DF0E552B9D0A00E995D02E168DDB4D09D
:10362000A10E995D02E174DDAFD0A20E995D02E1B9
:1036300091DDAAD0A30E995D02E17BDDA5D0A40E99
:10364000995D02E156DDA0D0A50E995D02E162DD33
:103650009BD0A60E995D02E17FDD96D0A70E995D05
:1036600002E169DD91D0A80E995D05E1050E945D3A
:1036700001E2942B89D0A90E995D05E1050E955DB7
:1036800001E2952B81D0AA0E995D05E1050E965DAC
:1036900001E2962B79D0AB0E995D05E1050E975DA1
:1036A00001E2972B71D0AC0E995D05E120DD30DD94
:1036B00051DD3FDD69D0AD0E995D05E11ADD2ADDF2
:1036C0004BDD39DD61D0AE0E995D05E1050E985DEB
:1036D00001E2982B59D0C00E995D0BE1010EE66E08
:1036E000E66E0BCFE6FF73EC14F0E552E552E552BF
:1036F0004BD0C10E995D0BE1E66A010EE66E0BCF71
:10370000E6FF73EC14F0E552E552E5523DD0C20EEF
:10371000995D03E1010E926F37D0C30E995D03E10D
:10372000020E926F31D0B10E995D11E10F01320E90
:10373000036F140E046F056F640E066F140E076F8F
:10374000086B096BD6DCE6DCF6DC06DD1DD0910EDD
:10375000995D03E1010E916F17D0920E995D03E11F
:10376000020E916F11D0930E995D03E1030E916FDC
:103770000BD0940E995D03E1040E916F05D0950E68
:10378000995D02E1050E916F1200DACFE4FFE2CFFE
:10379000DAFFE9CFE4FFEACFE4FFF6CFE4FFF7CFAB
:1037A000E4FFF5CFE4FFF3CFE4FFF4CFE4FFFACF7B
:1037B000E4FF00EE00F0140EE80403E3EECFE4FFB4
:1037C000FBD700EE14F0040EE80403E3EECFE4FFB1
:1037D000FBD7E652F29EF2A403D0F294FF0016D07B
:1037E000F2A214D0F292F294990EE66E000EE66EFA
:1037F000A10EE66E000EE66ECEEC0AF0E552E55242
:10380000E552E552020802E0CFDDEED7E55200EEC8
:1038100017F0040EE80403E3E5CFEDFFFBD700EE5D
:1038200013F0140EE80403E3E5CFEDFFFBD7E5CF7B
:10383000FAFFE5CFF4FFE5CFF3FFE5CFF5FFE5CFE6
:10384000F7FFE5CFF6FFE5CFEAFFE5CFE9FFE5CFEC
:10385000DAFF1100D8CFE4FFE0CFE4FFE46EDACF67
:10386000E4FFE2CFDAFFE652E552E5CFDAFFE550BA
:10387000E5CFE0FFE5CFD8FF1000D9CFE6FFE1CFDD
:10388000D9FF040EE126020EDB6A030EDB6A00019B
:10389000926B936B946B956B966B976B986B70DDDB
:1038A00060D96CD971D9030EDB6ADF6ADFCF14F0FF
:1038B000050EE76E1418E8AE02D0E73402D0E750E8
:1038C000145C2DE244EC14F0E76E020EE7CFDBFF50
:1038D000DBCF14F0030EDB50D880145406E2020E46
:1038E000DB50E76E030EE7CFDBFF0A0EE66E28EC37
:1038F00022F0E5520001910507E1F29E010EE66E0D
:1039000066DAE552F28E09D0020E915D06E1F29E72
:10391000020EE66E5CDAE552F28EDF2AC7D7010EA0
:10392000E66EB8EC14F0E5520001A26FE66AB8EC5E
:1039300014F0E5520001A36F020EE66EB8EC14F02D
:10394000E5520001A46F030EE66EB8EC14F0E552E8
:103950000001A56F010EE66E0CEC18F0E5520001B7
:10396000A66FE66A0CEC18F0E5520001A76F8450D0
:10397000800B01E0010EA86FB50EA96FA20EE66ED6
:10398000000EE66E010EE66E94EC09F0E552E5528B
:10399000E552FAD8E66A5DEC16F0E5520001A26F36
:1039A000010EE66E5DEC16F0E5520001A36F020E0B
:1039B000E66E5DEC16F0E5520001A46F060EE66EB1
:1039C00051EC0DF0E552F3CFE9FFF4CFEAFF010E21
:1039D000E926000EEA22EFCFA5F0060EE66E51ECC6
:1039E0000DF0E552F3CFE9FFF4CFEAFFEFCFA6F0F9
:1039F00003EC13F00001A76F030EDBCFA8F0B60EA7
:103A0000A96FA20EE66E000EE66E010EE66E94EC55
:103A100009F0E552E552E552B7D8050E0001945D74
:103A200001E3946B050E955D01E3956B050E965DC4
:103A300001E3966B050E975D01E3976B050E985DAC
:103A400001E3986B9451000807E2F29E9DD87BEC4D
:103A500018F000019407F28E9551000809E2F29ED9
:103A600093D88CEC18F08AEC18F000019507F28ED0
:103A70009651000807E2F29E87D8AEEC18F00001DC
:103A80009607F28E9751000807E2F29E7DD89DECD2
:103A900018F000019707F28E985100081AE2F29E82
:103AA00073D877EC18F088EC18F0AAEC18F099ECC1
:103AB00018F0050EE66EFBEC21F0E55279EC18F0FB
:103AC0008AEC18F0ACEC18F09BEC18F000019807A9
:103AD000F28E92050FE1F29E9351060803E2926B7B
:103AE000936B06D093C0E6FF6CD8E5520001932B90
:103AF000F28E11D0020E925D0EE1F29E93510308F8
:103B000003E2926B936B06D093C0E6FFF4D8E552C4
:103B10000001932BF28E910501E118D0020E915D08
:103B200001E114D0030E915D04E1F29E3EDAF28EC3
:103B30000DD0040E915D04E1F29E78DAF28E06D08B
:103B4000050E915D03E1F29E08DBF28EABD6040E0A
:103B5000E15C02E2E16AE552E16EE552E7CFD9FFAE
:103B60001200D76AD66AF294D59CD59AD596D59488
:103B7000D592D590F184F29AF28E1200D58EF28A07
:103B80001200D59EF29A1200D76AD66A1200D9CFD7
:103B9000E6FFE1CFD9FFE652D76AD66ADF6AFE0EAA
:103BA000DB50DF5C09E2050EE66EFBEC21F0E5522E
:103BB000D76AD66ADF2AF3D7E552E552E7CFD9FFB5
:103BC0001200D9CFE6FFE1CFD9FFDEDFFE0EDB50DA
:103BD000060A6BE0020A57E0070A3DE0010A29E005
:103BE000030A15E0010A01E082D0010EE66E020E22
:103BF000E66E500EE66E73EC14F0E552E552E552B7
:103C00000A0EE66EFBEC21F0E552BEDF70D0010E2D
:103C1000E66E020EE66E470EE66E73EC14F0E552A9
:103C2000E552E5520A0EE66EFBEC21F0E552ACDF00
:103C30005ED0010EE66E020EE66E3E0EE66E73EC90
:103C400014F0E552E552E5520A0EE66EFBEC21F067
:103C5000E5529ADF4CD0010EE66E030EE66E3B0E87
:103C6000E66E73EC14F0E552E552E5520A0EE66E8C
:103C7000FBEC21F0E55288DF0A0EE66EFBEC21F04A
:103C8000E55282DF34D0010EE66E020EE66E500E73
:103C9000E66E73EC14F0E552E552E5520A0EE66E5C
:103CA000FBEC21F0E55270DF22D0010EE66E030E30
:103CB000E66E3B0EE66E73EC14F0E552E552E5520B
:103CC0000A0EE66EFBEC21F0E5525EDF0A0EE66EB0
:103CD000FBEC21F0E55258DFE66A010EE66E5D0E60
:103CE000E66E73EC14F0E552E552E55200D0E55271
:103CF000E7CFD9FF1200D9CFE6FFE1CFD9FF44DFEC
:103D0000FE0EDB50030A3DE0010A29E0030A15E03C
:103D1000010A01E058D0010EE66E020EE66E5D0E5D
:103D2000E66E73EC14F0E552E552E5520A0EE66ECB
:103D3000FBEC21F0E55228DF46D0010EE66E020EC4
:103D4000E66E630EE66E73EC14F0E552E552E55252
:103D50000A0EE66EFBEC21F0E55216DF34D0010EC0
:103D6000E66E020EE66E690EE66E73EC14F0E55236
:103D7000E552E5520A0EE66EFBEC21F0E55204DF57
:103D800022D0010EE66E030EE66E6F0EE66E73EC49
:103D900014F0E552E552E5520A0EE66EFBEC21F016
:103DA000E552F2DE0A0EE66EFBEC21F0E552ECDEA7
:103DB000E66A010EE66E5D0EE66E73EC14F0E552F7
:103DC000E552E55200D0E552E7CFD9FF1200D9CF36
:103DD000E6FFE1CFD9FFE65203CFDFFFFE0EDB04A3
:103DE0006EE1E66A4DEC18F0E552000914E1010EAF
:103DF000E66E4DEC18F0E55201080DE1E66A010EA1
:103E0000E66EE66EDFCFE6FFAAEC0BF0E552E55278
:103E1000E552E55253D0E66A4DEC18F0E552000940
:103E200016E1010EE66E4DEC18F0E55200090FE1C7
:103E3000E66A010EE66EE66EE66AE66EDFCFE6FF44
:103E400048EC0CF0146E060EE15E145037D0E66AB2
:103E50004DEC18F0E552010816E1010EE66E4DEC4E
:103E600018F0E55201080FE1E66A010EE66EE66A17
:103E7000E66AE66EDFCFE6FF48EC0CF0146E060E45
:103E8000E15E14501BD0E66A4DEC18F0E5520108D3
:103E900015E1010EE66E4DEC18F0E55200090EE159
:103EA000E66A010EE66EE66AE66AE66EDFCFE6FFD8
:103EB00048EC0CF0146E060EE15E145071D0FE0E4C
:103EC000DB5002086DE1E66A4DEC18F0E55201089E
:103ED00014E1010EE66E4DEC18F0E55200090DE11B
:103EE000E66A010EE66EE66EDFCFE6FFAAEC0BF0A7
:103EF000E552E552E552E55253D0E66A4DEC18F032
:103F0000E552010816E1010EE66E4DEC18F0E5529F
:103F100001080FE1E66A010EE66EE66EE66AE66EFD
:103F2000DFCFE6FF48EC0CF0146E060EE15E145095
:103F300037D0E66A4DEC18F0E552000916E1010EA3
:103F4000E66E4DEC18F0E55200090FE1E66A010E4D
:103F5000E66EE66AE66AE66EDFCFE6FF48EC0CF056
:103F6000146E060EE15E14501BD0E66A4DEC18F09C
:103F7000E552000915E1010EE66E4DEC18F0E55230
:103F800001080EE1E66A010EE66EE66EE66AE66E8E
:103F9000DFCFE6FF48EC0CF0146E060EE15E145025
:103FA000E552E552E7CFD9FF1200D9CFE6FFE1CFC6
:103FB000D9FF020EE12603CFDFFFDE520A0EDD6ECF
:103FC000E66A010EE66EE66EDFCFE6FFAAEC0BF0C6
:103FD000E552E552E552E552E66A4DEC18F0E5523D
:103FE000010807E0010EE66E4DEC18F0E5520108FD
:103FF00013E1280EE66EE66A010EE66EE66EE66EE8
:10400000DFCFE6FF48EC0CF0146E060EE15E1450B4
:104010000E0EE66EBCDDE552020EE15C02E2E16AE4
:10402000E552E16EE552E7CFD9FF1200D9CFE6FFA6
:10403000E1CFD9FF020EE12603CFDFFFDE520A0EE9
:10404000DD6EE66A010EE66EE66EDFCFE6FFAAECF5
:104050000BF0E552E552E552E552E66A4DEC18F0F8
:10406000E552010807E0010EE66E4DEC18F0E5524E
:10407000010814E1280EE66EE66A010EE66EE66EB1
:10408000E66EDFCFE6FF48EC0CF0146E060EE15E44
:1040900014500E0EE66E7BDDE55255D0020EE66E34
:1040A000B8EC14F0E552146E010EDB50D8801454B5
:1040B0000BE3020EE66EB8EC14F0E552156E010E3D
:1040C000DB50D880155402E23ED03DD0030EE66EA0
:1040D000B8EC14F0E552146E010EDB50D880145485
:1040E00014E2040EE66EE66A010EE66EE66EE66E19
:1040F000DFCFE6FF48EC0CF0146E060EE15E1450C4
:10410000040EE66E44DDE5521ED0010EE66EB8ECFC
:1041100014F0E552146E010EDB50D880145413E2F3
:10412000040EE66EE66AE66A010EE66EE66EDFCF24
:10413000E6FF48EC0CF0146E060EE15E1450040E1F
:10414000E66E25DDE552020EE15C02E2E16AE5522F
:10415000E16EE552E7CFD9FF1200D9CFE6FFE1CFFC
:10416000D9FF020EE12603CFDFFFDE52320EDD6EF5
:10417000E66A010EE66EE66EDFCFE6FFAAEC0BF014
:10418000E552E552E552E552020EE66EB8EC14F047
:10419000E552146E010EDB50D88014540BE3020E6E
:1041A000E66EB8EC14F0E552156E010EDB50D880C7
:1041B000155402E23ED03DD0030EE66EB8EC14F08A
:1041C000E552146E010EDB50D880145414E2040E34
:1041D000E66EE66A010EE66EE66EE66EDFCFE6FF9D
:1041E00048EC0CF0146E060EE15E1450040EE66E00
:1041F000CEDCE5521ED0010EE66EB8EC14F0E552AE
:10420000146E010EDB50D880145413E2040EE66ED7
:10421000E66AE66A010EE66EE66EDFCFE6FF48EC80
:104220000CF0146E060EE15E1450040EE66EAFDC68
:10423000E552020EE15C02E2E16AE552E16EE5520E
:06424000E7CFD9FF1200D8
:0A4246002A0EF66E100EF76E000E41
:10425000F86E0F010900F550136F0900F550146F47
:1042600003E1136701D03DD00900F5500E6F09003E
:10427000F5500F6F0900F550106F09000900F55057
:10428000E96E0900F550EA6E090009000900F550D1
:10429000116F0900F550126F09000900F6CF15FFE4
:1042A000F7CF16FFF8CF17FF0ECFF6FF0FCFF7FFB0
:1042B00010CFF8FF0F01115302E1125307E009007C
:1042C000F550EE6E1107F8E21207F9D715CFF6FF99
:1042D00016CFF7FF17CFF8FF0F011307000E145B7F
:0442E000BFD7120032
:0C42E400D9CFE6FFDACFE6FFE1CFD9FF2B
:1042F000E2CFDAFFC098C26AC16AFC0EDB50400D03
:10430000F350C00B146EFC0EDB407F0B3C0B141003
:10431000C26EFD0EDB50040DF350380B156EFD0E12
:10432000DB380F0B070B146EFD0EDB50800B1410E7
:104330001510C16EC088FA0EDB50C16EFA0EDBCFCD
:1043400014F0FB0EDBCF15F015C014F0156A1450F5
:10435000C26EC098FC0EDBAE03D09E9C9D8CF28C8E
:0E436000C280E552E5CFDAFFE7CFD9FF1200A9
:02436E00006AE3
:104370000EAEC0EF21F00D6C0E1EE86A0E22001E7C
:1043800009AEC8EF21F0086C091EE86A0922001E78
:1043900012EC22F009BED8EF21F000AE000C086C40
:1043A000091EE86A0922046C051EE86A0522000C51
:1043B00000BECFEF21F00188FF0C08C012F00850BA
:1043C0000D02F4CF07F0F3CF06F009500E02F4CF40
:1043D00009F0F3CF08F00D02F3500726F45008223D
:1043E000E86A092212500E02F3500726F450082200
:0643F000E86A0922000C3E
:0A43F600FF0EE350196EEF0E01D028
:10440000F30EE76EE72E02EF22F00C0E186EE76A4D
:10441000E72E08EF22F0182E07EF22F0192E00EFFA
:0444200022F0120074
:0C442400056A046A100EE76ED890083696
:104430000936043605360D50045C0E50055805E368
:104440000D50045E0E50055A082AE72EF0D71200D0
:10445000FF0EE350196E480E01D04C0EE76EE72EAA
:10446000FED7E76AE72EFED7192EF7D70000120015
:10447000400EF36E00EE00F00F0E01D81200EA605D
:1044800002D0EE6AFCD7F350E9601200EE6AFCD766
:104490001EEE00F02EEE00F0F86A019C23EC21F0F5
:0C44A0006EEC22F03DEC1CF0FBD712008B
:0444AC00FF0EE350CC
:1044B000E84E1200000000D000D000D0E82EFAD75D
:0244C0001200E8
:0C44C200C098C250020B01E0010E120075
:0244CE00C09894
:0644D000C2909D9C120049
:0644D600C098C282120032
:0244DC001200CC
:0244DE000000DC
:0C44E000013214146414000000FA0700FC
:020000040001F9
:01FFF800AB5D
:01FFF900F512
:01FFFA000501
:01FFFB00F80D
:01FFFC00E024
:01FFFD00F40F
:00000001FF
